:020000040000FA
:020000000D28C9
:040002000034003492
:08000800A000030EA100210E6F
:100010008300A00E200E0900080083160230850020
:100020009F010730810000308B0002309F00833039
:10003000990083121430990005118316991A242807
:100040008312191B28281D288312191B1D283728E5
:1000500005150530A20081010B113C3081000B1DFC
:100060002F28A20B2B288316991683121D28051101
:100070000530A20081010B113C3081000B1D3E2890
:0E008000A20B3A2883169912831299001D28AC
:02400E00A43FCD
:00000001FF
