:020000040000FA
:020000000D28C9
:08000800A000030EA100210E6F
:100010008300A00E200E090008008316043085001E
:1000200014309F010730810000308B0083120930AB
:100030009F00073099000430A7000830A800053061
:10004000A3003330A4000130A5000130A6009F14A6
:100050009F1828281E08A2002402031C3528031913
:100060003A28A5033330A4023A2833302407A400E9
:10007000A50A2A282408A20222082302031C4228D7
:10008000A603472805302307A300A60A3C2803102F
:10009000A50D4A28A70B472825082607AA00AA0D60
:1000A0000318572805108514000085105C280514D6
:1000B0008514000085105C28A80B4F280A30A90081
:1000C00081010B11643081000B1D6428A90B60288D
:0200D0001B28EB
:02400E00A43FCD
:00000001FF
